:020000002100DD
:0F01000075430075443812014A75440C12014AC8
:0F010F0075440612014A75448012014A75430176
:10011E00900FD0E493F54412014AA3E582B4E3F3C1
:10012E007543007544C012014A754301E493F544CA
:0F013E0012014AA3E582B4F6F3020FF68544A03E
:0F014D00D2B7C2B6E543A2E092B5120162C2B7C3
:10015C00120162D2B722C0E0740A1470FD00D0E024
:01016C002270
:100FD00069742069732074657374206578616D701D
:100FE0006C652E303132333435363738394142432F
:080FF00044464940232480FE21
:00000001FF
